:100000000C942A000C9447000C9447000C94470071
:100010000C9447000C9447000C9447000C94470044
:100020000C9447000C9447000C9447000C94470034
:100030000C9447000C9447000C9447000C94470024
:100040000C9447000C9447000C9447000C94470014
:100050000C94470011241FBECFE5D8E0DEBFCDBF12
:1000600010E0A0E6B0E0E0EBF9E002C005900D92F0
:10007000A637B107D9F720E0A6E7B0E001C01D928E
:10008000A637B207E1F70E946F010C94D6040C94D6
:10009000000088B3886088BB8FE19EE40197F1F788
:1000A00000C0000088B3877F88BB8FE19EE4019782
:1000B000F1F700C0000008958AB38F708ABB88B33F
:1000C000846088BB88B38D7F88BB0E9449008AB357
:1000D000806F8ABB88B38B7F88BB0895CF93C82F6E
:1000E0000E945C0088B3897F88BB8BB38F709C2F84
:1000F000907F892B8BBB0E9449002BB330E1C39FBB
:10010000C0011124922F9F70892B8BBB0E94490044
:100110008FEC97E00197F1F700C000000E945C00AF
:10012000CF9108958FEF8ABB87B38E6087BB0E9403
:100130005C002FEB8AED90E0215080409040E1F789
:1001400000C0000082E00E946E0088E20E946E0003
:100150002AE62A95F1F700C08FE00E946E0082E047
:100160008A95F1F700C081E00E946E0095E09A95B3
:10017000F1F7000086E00E946E000895CF93C82F2B
:100180000E945C0088B38B7F88BB88B3826088BB89
:100190008BB38F709C2F907F892B8BBB0E94490063
:1001A0002BB330E1C39FC0011124922F9F70892B84
:1001B0008BBB0E9449008FEC97E00197F1F700C0DC
:1001C00000000E945C00CF910895811107C060314A
:1001D00068F480E8860F0E946E000895813031F443
:1001E000603120F480EC860F0E946E0008950F931A
:1001F0001F93CF93DF938C01C0E0D0E01AC021960B
:100200000E94BE000F5F1F4FC031D10529F460E08E
:1002100081E00E94E5000DC0CE018097029748F46E
:1002200081E00E946E0060E080E00E94E500C0E096
:10023000D0E0F80180818111E2CFDF91CF911F9151
:100240000F9108950F931F93CF93DF93CDB7DEB730
:100250002A970FB6F894DEBF0FBECDBF9F938F9342
:1002600080E690E09F938F938E010F5F1F4F1F9347
:100270000F930E94EC01C8010E94F7000F900F90AD
:100280000F900F900F900F902A960FB6F894DEBF44
:100290000FBECDBFDF91CF911F910F910895CF93E6
:1002A000DF9300D000D000D0CDB7DEB780E48983E3
:1002B00080E18A831B8288E08C831E821D82BE01BE
:1002C0006F5F7F4F8DE290E00E94B20126960FB6DD
:1002D000F894DEBF0FBECDBFDF91CF9108950E948D
:1002E00092000E944F0160E080E00E94E5008FE6EE
:1002F00090E00E94F70069E080E00E94E50080E065
:1003000090E00E942201D1E4C0E011E01D0F6D2FAA
:100310008DE290E00E94E501082F1B3511F0D12FEE
:1003200001C0D1E460E081E00E94E500802F0E94DE
:10033000BE0069E080E00E94E50011E01C0F8C2FF8
:1003400090E00E942201153611F0C12F01C0C0E0DB
:100350002FEF89E698E1215080409040E1F700C0FE
:100360000000D3CFDC01FB018181803139F487B3F8
:10037000806B87BB87B38F7B87BB08C0811106C0AA
:1003800087B3806487BB87B38F7487BB94818CEFFE
:10039000890F843048F411968C91119781601196E1
:1003A0008C931197948194502081922B2181922BD0
:1003B0002281922B2381922B8581982B803819F4EE
:1003C0008FB780688FBF9C930895FC0162839181F1
:1003D0009923ECF782810895AEE0B0E0E2EFF1E01E
:1003E0000C94AD040D891E8986E08C831A830983E1
:1003F0008FEF9FE79E838D83AE01475E5F4F6F89CE
:10040000788DCE0101960E940E02EF81F885E00FF3
:10041000F11F10822E96E4E00C94C904ABE0B0E02A
:10042000E4E1F2E00C949F046C017B018A01FC0181
:1004300017821682838181FFCCC1CE0101963C01D7
:10044000F6019381F70193FD859193FF81917F01DF
:10045000882309F4BAC1853239F493FD859193FF5D
:1004600081917F01853229F4B60190E00E94050454
:10047000E7CF912C212C312CFFE1F315D8F08B32F2
:1004800079F038F4803279F08332A1F4232D2061A1
:100490001DC08D3261F0803369F4232D216016C0B8
:1004A000832D8260382EE32DE4603E2E2AC0F32D8A
:1004B000F8601DC037FC2DC020ED280F2A3040F019
:1004C0008E32B9F436FC81C1232D2064322E19C03E
:1004D00036FE06C08AE0989E200D1124922E11C08F
:1004E000EAE02E9E200D1124222EF32DF0623F2EE5
:1004F00008C08C3621F4832D8068382E02C08836DF
:1005000041F4F70193FD859193FF81917F01811162
:10051000B3CF982F9F7D9554933028F40C5F1F4FD5
:100520009FE399830DC0833631F0833771F08335B3
:1005300009F059C021C0F801808189830E5F1F4FE7
:1005400088248394912C530113C02801F2E04F0EAC
:10055000511CF801A080B18036FE03C0692D70E007
:1005600002C06FEF7FEFC5010E94FA034C018201C8
:10057000F32DFF773F2E16C0280122E0420E511CBA
:10058000F801A080B18036FE03C0692D70E002C082
:100590006FEF7FEFC5010E94EF034C01F32DF06870
:1005A0003F2E820133FC1BC0822D90E088169906F5
:1005B000B0F4B60180E290E00E9405042A94F4CFE2
:1005C000F50137FC859137FE81915F01B60190E01E
:1005D0000E94050421102A9421E0821A91088114B6
:1005E000910471F7E8C0843611F0893641F5F801BD
:1005F00037FE07C060817181828193810C5F1F4F3C
:1006000008C060817181072E000C880B990B0E5F6A
:100610001F4FF32DFF763F2E97FF09C090958095D1
:10062000709561957F4F8F4F9F4FF0683F2E2AE066
:1006300030E0A3010E944104882E861845C085370A
:1006400031F4232D2F7EB22E2AE030E025C0932DE9
:10065000997FB92E8F36C1F018F4883579F0B5C07E
:10066000803719F0883721F0B0C0E92FE061BE2E45
:10067000B4FE0DC0FB2DF460BF2E09C034FE0AC0CD
:10068000292F2660B22E06C028E030E005C020E108
:1006900030E002C020E132E0F801B7FE07C060811F
:1006A0007181828193810C5F1F4F06C060817181CF
:1006B00080E090E00E5F1F4FA3010E944104882E4E
:1006C0008618FB2DFF773F2E36FE0DC0232D2E7F83
:1006D000A22E891458F434FE0BC032FC09C0832DBD
:1006E0008E7EA82E05C0B82CA32C03C0B82C01C048
:1006F000B92CA4FE0FC0FE01E80DF11D80818033EE
:1007000021F49A2D997EA92E09C0A2FE06C0B394A9
:10071000B39404C08A2D867809F0B394A3FC11C069
:10072000A0FE06C0B21488F4280C922C9B180EC0B0
:10073000B21460F4B60180E290E00E940504B39424
:10074000F7CFB21418F42B1802C0982C212CA4FE59
:1007500010C0B60180E390E00E940504A2FE17C01D
:10076000A1FC03C088E790E002C088E590E0B601F4
:100770000CC08A2D867859F0A1FE02C08BE201C020
:1007800080E2A7FC8DE2B60190E00E940504891486
:1007900038F4B60180E390E00E9405049A94F7CF04
:1007A0008A94F301E80DF11D8081B60190E00E946A
:1007B00005048110F5CF222009F442CEB60180E273
:1007C00090E00E9405042A94F6CFF6018681978175
:1007D00002C08FEF9FEF2B96E2E10C94BB04FC016B
:1007E0000590615070400110D8F7809590958E0F5C
:1007F0009F1F0895FC016150704001900110D8F7CF
:10080000809590958E0F9F1F08950F931F93CF9300
:10081000DF93FB01238121FD03C08FEF9FEF2CC0ED
:1008200022FF16C046815781248135814217530724
:1008300044F4A081B1819D012F5F3F4F318320831C
:100840008C93268137812F5F3F4F3783268314C0D7
:100850008B01EC01FB010084F185E02D0995892BCA
:10086000E1F6D80116968D919C91179701961796EF
:100870009C938E931697CE01DF91CF911F910F918C
:100880000895FA01AA27283051F1203181F1E89426
:100890006F936E7F6E5F7F4F8F4F9F4FAF4FB1E073
:1008A0003ED0B4E03CD0670F781F891F9A1FA11D6E
:1008B000680F791F8A1F911DA11D6A0F711D811D6F
:1008C000911DA11D20D009F468943F912AE0269F34
:1008D00011243019305D3193DEF6CF010895462F93
:1008E0004770405D4193B3E00FD0C9F7F6CF462F74
:1008F0004F70405D4A3318F0495D31FD40524193DD
:1009000002D0A9F7EACFB4E0A69597958795779599
:100910006795BA95C9F700976105710508959B0120
:10092000AC010A2E06945795479537952795BA95A9
:10093000C9F7620F731F841F951FA01D08952F9282
:100940003F924F925F926F927F928F929F92AF925F
:10095000BF92CF92DF92EF92FF920F931F93CF93AC
:10096000DF93CDB7DEB7CA1BDB0B0FB6F894DEBF43
:100970000FBECDBF09942A88398848885F846E8469
:100980007D848C849B84AA84B984C884DF80EE80B3
:10099000FD800C811B81AA81B981CE0FD11D0FB6BC
:1009A000F894DEBF0FBECDBFED010895F894FFCFE0
:1009B0002564002D00257325642E25303464004DF8
:0609C00061737465720012
:00000001FF
